:060000000A128A110C280F
:10000800FE00030EF1000A08F2000A128A111628EF
:100018000A128A110F28F601F701F80183010A1262
:100028008A11DB288B13831203130C1F1C281D282D
:100038002A281E08F0007008F7000C132730F0007B
:10004800F00B24282728831203139F148C1D2D28B6
:100058002E2880281412141B322833283728941F7E
:10006800362837283E281308F0007008F8001413C3
:100078009413141683160313941A432844285C28EF
:100088001419472848285C28831203131308F00022
:100098007008F8008C11141683160313141C5528C5
:1000A80056285028A630F000F00B582800007D286C
:1000B800941A5F2860287D28141D632864287D28E9
:1000C800831203131308F0007008F8008316031353
:1000D800141077088312031393001416A630F00047
:1000E800F00B742800008316031314187C287D284D
:1000F8007728831203138C118B1772088A00710EEC
:100108008300FE0E7E0E0900831603130F178F1649
:100118000F160F1483160317890101308800013068
:10012800831603138500860108308700880189013A
:1001380083120313850186018701880189018316CB
:1001480003139F131F129F12831203131F083F39B3
:1001580080389F00C3309F051F142130F400F40B32
:10016800B328831203139F148B170B1770300A12CE
:100178008A11C1200A128A110800F3007308831635
:1001880003139300363083120313940080308316D0
:100198000313940001309100871507168B170B176E
:1001A800831203138C11831603138C1508000A128B
:1001B8008A1188200A128A11831203139F140130AE
:0E01C800F5007508F607E3280A128A110C28C4
:04400E00D420FF3F7C
:00000001FF
