:060000000A128A11F22F22
:10001000831603130F178F160F160F14831603176B
:1000200089018801831603138501860187018801F0
:1000300089018312031385018601870188018901E3
:100040008B130B130030A3000130A2008630A100F7
:10005000A030A0000A128A1584270A128A1108000B
:1000600000300A128A1572260A128A111A30F50017
:10007000F830F400F40B3A28F50B3A280000303041
:100080000A128A15AE260A128A110730F5007D3051
:10009000F400F40B4928F50B492830300A128A1570
:1000A000AE260A128A114230F400F40B55280000E3
:1000B00030300A128A15AE260A128A113C300A1212
:1000C0008A15AE260A128A1108300A128A15AE263F
:1000D0000A128A1101300A128A15AE260A128A11F2
:1000E00006300A128A15AE260A128A110800F70095
:1000F0007703031D7C287D28A02874087F3EF50027
:100100007508FA007A08F50004300310F50CFF3E7C
:10011000031D85287508F6007608F8007A080F395F
:10012000F5007508F90078080A128A15AE260A1239
:100130008A1179080A128A15AE260A128A11C8286D
:1001400002307706031DA528A628C8287408BF3EDC
:10015000F5007508FA007A08F50004300310F50C74
:10016000FF3E031DAE287508F6007608F8007A08F1
:10017000F039F5007508F90078080A128A15AE26DC
:100180000A128A1179080A128A15AE260A128A11F1
:1001900008000030FC000030FB000030FA000030A6
:1001A000F90073087204710470040319D828D9285F
:1001B0002629FD01FD0AE9280130F8000310F00DA1
:1001C000F10DF20DF30DF80BDE280130F800780880
:1001D000FD07F31FEC28ED28DC280130F8000310A0
:1001E000F90DFA0DFB0DFC0DF80BEF2873087702E3
:1001F000031D042972087602031D04297108750283
:10020000031D042970087402031C072908291729F3
:100210007008F4027108031C710FF5027208031CC8
:10022000720FF6027308031C730FF7027914013082
:100230000310F30CF20CF10CF00CFF3E031D182917
:100240000130FD02031D25292629ED287C08F30035
:100250007B08F2007A08F1007908F00008007908BC
:10026000FD007808FC006430F0000030F1007D08EB
:10027000F3007C08F2000A128A15BC270A128A11C0
:100280007008FA007A0883120313CE004E08FA00B1
:10029000FB017A08F0007B08F1009C30F200FF308F
:1002A000F3000A128A150A270A128A117C087007BD
:1002B000FC007D0803187D0A7107FD000A30F0007C
:1002C0000030F1007D08F3007C08F2000A128A1564
:1002D000BC270A128A117008FA007A0883120313E5
:1002E000CC004C08FA00FB017A08F0007B08F10012
:1002F000F630F200FF30F3000A128A150A270A12BC
:100300008A117C087007FC007D0803187D0A7107BC
:10031000FD007C08FA007A0883120313CB004E0814
:10032000303EFA007A08CE004C08303EFA007A08D7
:10033000CC004B08303EFA007A08CB0008000310CE
:10034000831203133C0D3D0DBE003E08C40044085B
:10035000031DAB29AC29B5290030BD000030BC001D
:100360000030BB000030BA001A2A3A08BE003B0831
:10037000BF003C08C0003D08C1001F300310C10C85
:10038000C00CBF0CBE0CFF3E031DBE293E08C200C0
:100390004208C300BC17FF30BA05FF30BB05FF3071
:1003A000BC050030BD059630C402C41FD829D92928
:1003B000F3294408803A973E0318DF29E029E12910
:1003C000AC2901300310BD0CBC0CBB0CBA0CFF3EB9
:1003D000031DE2290130BE003E08C407031DF129B8
:1003E000F229E1290A2A20304402031CF829F929BC
:1003F000052AAC290130BE000310BA0DBB0DBC0D9F
:10040000BD0DBE0BFC290130C4024408031D092A9E
:100410000A2AFA29430803190E2A0F2A1A2ABA09A6
:10042000BB09BC09BD09BA0A0319BB0A0319BC0AF6
:100430000319BD0A0800F80078080319202A212AA8
:10044000352AF31F242A252A352A7009FA00710952
:10045000FB007209FC007309FD00FA0A0319FB0A8C
:100460000319FC0A0319FD0A3D2A7308FD007208EE
:10047000FC007108FB007008FA0073087204710434
:100480007004031D442A452A4E2A0030F300003030
:10049000F2000030F1000030F000D42A9630F40071
:1004A0007408F900602A0130F4007408F90701307B
:1004B0000310FD0CFC0CFB0CFA0CFF3E031D582A2C
:1004C000FE307D05031D652A662A532A822A0130E3
:1004D000F4007408F9070130FA07003003180130FE
:1004E000FB07003003180130FC070030031801300F
:1004F000FD0701300310FD0CFC0CFB0CFA0CFF3E59
:10050000031D7A2AFF307D05031D872A882A672A62
:10051000942A0130F9020130F4000310FA0DFB0DAA
:10052000FC0DFD0DF40B8D2AFC1B972A982A9E2AA0
:100530000230790203189D2A9E2A892A7918A12A55
:10054000A22AAA2AFF30FA05FF30FB057F30FC05FE
:10055000FF30FD050310F90C7908F400F501F601F0
:10056000F70118300310F40DF50DF60DF70DFF3EF1
:10057000031DB22A7408FA047508FB047608FC040B
:100580007708FD0478080319C62AC72ACC2AF31F66
:10059000CA2ACB2ACC2AFD177D08F3007C08F2007A
:1005A0007B08F1007A08F00008000A128A15782604
:1005B0000A128A117130F0000030F1000A128A1517
:1005C0008A260A128A110030F000F1000A128A15F8
:1005D00056270A128A11710883120313CA00700881
:1005E000C9000A128A1581260A128A110330F800FE
:1005F0000830F7007730F600F60BFC2AF70BFC2AE0
:10060000F80BFC2A0A128A1578260A128A11813000
:10061000F0000030F1000A128A158A260A128A11A7
:100620000030F000F1000A128A1556270A128A11CA
:100630007008F600760883120313CD000A128A159B
:1006400081260A128A110330F8000830F70077304B
:10065000F600F60B292BF70B292BF80B292B0A1286
:100660008A1578260A128A119030F0000030F100C5
:100670000A128A158A260A128A11EE30F00000301A
:10068000F1000A128A158A260A128A110A128A159C
:1006900081260A128A110330F8000830F7007730FB
:1006A000F600F60B512BF70B512BF80B512B0A12BE
:1006B0008A1578260A128A119030F0000030F10075
:1006C0000A128A158A260A128A11AA30F00000300E
:1006D000F1000A128A158A260A128A110A128A154C
:1006E00081260A128A110330F8000830F7007730AB
:1006F000F600F60B792BF70B792BF80B792B0A12F6
:100700008A1578260A128A119130F0000030F10023
:100710000A128A158A260A128A110030F000F100A6
:100720000A128A1556270A128A11710883120313B6
:10073000C8007008C7000A128A1581260A128A1199
:100740000330F8000830F7007730F600F60BA62BE0
:10075000F70BA62BF80BA62B08000A128A1108200B
:100760000A128A110A128A1130200A128A110A12F8
:100770008A15A1260A128A11F401F40A01300A121C
:100780008A1177200A128A1101300A128A15E52689
:100790000A128A110A128A11D5220A128A118312A8
:1007A00003134908F0004A08F100F201F301003098
:1007B0000A128A111B220A128A1173088312031368
:1007C000A7007208A6007108A5007008A4003F30B9
:1007D000A300FB30A2000230A1000C30A0000A12DE
:1007E0008A1191240A128A11831203132308BD006F
:1007F0002208BC002108BB002008BA000A128A1196
:100800009F210A128A11831203133B08CA003A0877
:10081000C9004A08F9004908F8000A128A112F2174
:100820000A128A11F401F40A02300A128A1177209E
:100830000A128A11831203134E080A128A15C82657
:100840000A128A112E300A128A15C8260A128A1133
:10085000831203134C080A128A15C8260A128A1139
:10086000831203134B080A128A15C8260A128A112A
:1008700012300A128A15E5260A128A11831203130E
:100880004D08C500C6014508F8004608F9000A12DF
:100890008A112F210A128A11831203134E080A1299
:1008A0008A15C8260A128A11831203134C080A12E9
:1008B0008A15C8260A128A11831203134B080A12DA
:1008C0008A15C8260A128A1112300A128A15E526DC
:1008D0000A128A11831203134808F9004708F80026
:1008E0000A128A112F210A128A11831203134E0849
:1008F0000A128A15C8260A128A11831203134C0899
:100900000A128A15C8260A128A11831203134B0889
:100910000A128A15C8260A128A11CA2B0A128A11CB
:1009200000288312031323088039A8002808AD008B
:100930002308A8002807A9002908B300A21FA12C9A
:10094000A22CA32C331433080319A72CA82CB72CE2
:10095000330A031DAC2CAD2CB52C0030A3000030A5
:10096000A2000030A1000030A000A217BF2C003070
:10097000A3000030A2000030A1000030A000270832
:100980008039A8002808AD062708A8002807A90074
:100990002908B200A61FCD2CCE2CCF2C3214320841
:1009A0000319D32CD42CE32C320A031DD82CD92CB8
:1009B000E12C0030A7000030A6000030A500003078
:1009C000A400A617EB2C0030A7000030A6000030D2
:1009D000A5000030A40032080319EF2CF02CF52CF0
:1009E0003308031DF42CF52CFE2C0030A30000303E
:1009F000A2000030A1000030A000F12F2008A800C4
:100A00002808F00026080A128A152F270A128A11D0
:100A1000710883120313B9007008B8003808A800E1
:100A2000A901AA01AB012B08B1002A08B0002908CE
:100A3000AF002808AE003908A800A901AA01AB013F
:100A40002B08B7002A08B6002908B5002808B4000A
:100A50002108A8002808F00025080A128A152F2767
:100A60000A128A11710883120313B9007008B800C2
:100A70003808A800A901AA01AB012808AE07290877
:100A800003110318013E0319462DAF072A0803116D
:100A90000318013E03194D2DB0072B08031103184D
:100AA000013E0319542DB1073908A800A901AA0174
:100AB000AB012808B407290803110318013E0319E4
:100AC000622DB5072A0803110318013E0319692D89
:100AD000B6072B0803110318013E0319702DB70741
:100AE0002208A8002808F00024080A128A152F27D7
:100AF0000A128A11710883120313B9007008B80032
:100B00003808A800A901AA01AB012808AE072908E6
:100B100003110318013E03198E2DAF072A08031194
:100B20000318013E0319952DB0072B080311031874
:100B3000013E03199C2DB1073908A800A901AA019B
:100B4000AB012808B407290803110318013E031953
:100B5000AA2DB5072A0803110318013E0319B12D68
:100B6000B6072B0803110318013E0319B82DB70768
:100B70000830A8000310AE0DAF0DB00DB10DA80BDD
:100B8000BA2D2108A8002808F00024080A128A15A6
:100B90002F270A128A11710883120313B9007008F3
:100BA000B8003808A8003908A900AA01AB01280834
:100BB000AE07290803110318013E0319E02DAF0702
:100BC0002A0803110318013E0319E72DB0072B086B
:100BD00003110318013E0319EE2DB1072008A800E8
:100BE0002808F00025080A128A152F270A128A11F0
:100BF000710883120313B9007008B8003808A80000
:100C00003908A900AA01AB012808AE072908031179
:100C10000318013E03190D2EAF072A08031103180C
:100C2000013E0319142EB0072B0803110318013ECF
:100C300003191B2EB1070830A8000310AE0DAF0D2D
:100C4000B00DB10DA80B1D2E2008A8002808F0003B
:100C500024080A128A152F270A128A117108831292
:100C60000313B9007008B8003808A8003908A900B3
:100C7000AA01AB012808AE07290803110318013E99
:100C80000319432EAF072A0803110318013E031965
:100C90004A2EB0072B0803110318013E0319512EE9
:100CA000B1072108A8002808F00026080A128A15B2
:100CB0002F270A128A11710883120313B9007008D2
:100CC000B8003808A8003908A900AA01AB01280813
:100CD000B407290803110318013E0319702EB50744
:100CE0002A0803110318013E0319772EB6072B08B3
:100CF00003110318013E03197E2EB7072208A8002E
:100D00002808F00025080A128A152F270A128A11CE
:100D1000710883120313B9007008B8003808A800DE
:100D20003908A900AA01AB012808B4072908031152
:100D30000318013E03199D2EB5072A080311031855
:100D4000013E0319A42EB6072B0803110318013E18
:100D50000319AB2EB7072208A8002808F0002608C0
:100D60000A128A152F270A128A1171088312031397
:100D7000B9007008B8003808A8003908A900AA010D
:100D8000AB0108300310A80DA90DAA0DAB0DFF3E55
:100D9000031DC22E2808B407290803110318013EB9
:100DA0000319D32EB5072A0803110318013E0319AE
:100DB000DA2EB6072B0803110318013E0319E12EA2
:100DC000B7072E08A8002F08A9003008AA0031088C
:100DD000AB0018300310AB0CAA0CA90CA80CFF3EFA
:100DE000031DEA2E2808B407290803110318013E41
:100DF0000319FB2EB5072A0803110318013E031936
:100E0000022FB6072B0803110318013E0319092FFF
:100E1000B7070830A8000310AE0DAF0DB00DB10D2F
:100E2000A80B0B2F33083207A800A901A90D280829
:100E3000823EB80029080318013EFF3EB9003D2F4D
:100E40000130A8000310B40DB50DB60DB70DA80BF9
:100E5000222FB11F2C2F2D2F2E2F34140130A8003C
:100E60000310AE0DAF0DB00DB10DA80B302FFF303C
:100E7000B8070318B90AFF30B907B61F402F412F32
:100E8000202FB201B11F452F462F622FFF302E05B4
:100E9000A800FF302F05A900FF303005AA007F30E1
:100EA0003105AB002B082A04290428040319592F03
:100EB0005A2F5D2FB201B20A622F341C602F612FAE
:100EC000622F5A2F32080319662F672F982F01308F
:100ED000B407003003180130B507003003180130A3
:100EE000B607003003180130B707371C782F792F69
:100EF000982F3408A8003508A9003608AA0037083A
:100F0000AB000130AC002B0DAB0CAA0CA90CA80C4B
:100F1000AC0B832F2B08B7002A08B6002908B500B0
:100F20002808B4000130B8070318B90A0030B9071F
:100F30003908803AFF0080307F02031DA12FFF3067
:100F40003802031CA42FA52FB02F7F308312031368
:100F5000B7008030B6000030B5000030B400E52F97
:100F6000831203133908803AFF0080307F02031D8B
:100F7000BB2F013038020318BE2FBF2FCB2F0030FC
:100F800083120313B7000030B6000030B500003004
:100F9000B400AD01E52F831203133808A800280818
:100FA000B300FF30B405FF30B5057F30B605003023
:100FB000B705331CDC2FDD2FDE2FB6173308A80052
:100FC0000310280CA9002908B7002D08A80028083C
:100FD000B7043708A3003608A2003508A10034087A
:100FE000A000080083120313C701C801C901CA0188
:100FF000CB01CC01CD01CE0183010A128A11AD2BA8
:1010000008308A000408840A8207003420345334EC
:1010100031343A34203420342034533432343A34A6
:10102000203420342034533433343A3400342034E0
:041030002034003434
:101CE400F000700883120313880008000A128A1592
:101CF40094260A128A1583160313111408000A1273
:101D04008A1594260A128A158316031311150800DE
:101D14000A128A1594260A128A157008831203136C
:101D240093000800831603131419992E9A2E942EE7
:101D340011081F39031D9F2EA02E942E0800003079
:101D44000A128A15AE260A128A1501300A128A1559
:101D5400AE260A128A150800F30083120313091031
:101D640073080A128A1572260A128A15831203133B
:101D740089140630F2003030F100F10BBF2EF20B63
:101D8400BF2E00008312031389100800F2007208AA
:101D9400F1007108F3007308F1007108F400831274
:101DA4000313091474080A128A1572260A128A1572
:101DB4008312031389140D30F100F10BDF2E83120B
:101DC400031389100800F700F501F601FC2E7508CD
:101DD400770784000A128A1500200A128A150A124B
:101DE4008A15C8260A128A150130F5070318F60A5F
:101DF4000030F6077508770784000A128A15002058
:101E04000A128A15003A031D082F092FE92E08002B
:101E1400F401F501701C0F2F102F162F7208F40710
:101E24000318F50A7308F50701300310F20DF30DDA
:101E3400FF3E031D172F01300310F10CF00CFF3E81
:101E4400031D1E2F70087104031D292F2A2F0C2F28
:101E54007508F1007408F0000800F800F401F501B9
:101E64007008F200F3017208F6007308F700781C9A
:101E74003C2F3D2F432F7608F4070318F50A770803
:101E8400F50701300310F60DF70DFF3E031D442F37
:101E94000310F80C7808031D502F512F392F7508A3
:101EA400F1007408F00008000A128A1594260A1238
:101EB4008A158316031391150A128A1594260A1299
:101EC4008A15831203131308F200F3017208F40055
:101ED4007308F5000A128A1594260A128A157003EB
:101EE4007104031D762F772F7B2F83160313911212
:101EF4007E2F83160313911611167508F1007408CA
:101F0400F00008002830831203139400831603138F
:101F14009101831203132008A4002108A5002208BC
:101F2400A6002308A70002300310A40DA50DA60DDA
:101F3400A70DFF3E031D962F2708F3002608F20085
:101F44002508F1002408F0000030F7007A30F6008C
:101F54001230F5000030F4000A128A11C9200A1266
:101F64008A157008FF3E83160313930094018715A6
:101F740007160800F501F601700871040319C32F50
:101F8400C42FFB2FF701F70AD22F01300310F00DF5
:101F9400F10DFF3E031DC82F0130F4007408F7074C
:101FA400F11FD52FD62FC72F01300310F50DF60DD5
:101FB400FF3E031DD72F71087302031DE32F700822
:101FC4007202031CE62FE72FEE2F7008F20271084D
:101FD400031CF303F302751401300310F10CF00C2D
:101FE400FF3E031DEF2F0130F702031DFA2FFB2FD5
:0C1FF400D62F7608F1007508F0000800F8
:04400E00D420FF3F7C
:00000001FF
